{
  "_format": "hh-sol-artifact-1",
  "contractName": "Marketplace",
  "sourceName": "contracts/NftMarket.sol",
  "abi": [
    {
      "inputs": [],
      "stateMutability": "nonpayable",
      "type": "constructor"
    },
    {
      "anonymous": false,
      "inputs": [
        {
          "indexed": true,
          "internalType": "address",
          "name": "owner",
          "type": "address"
        },
        {
          "indexed": true,
          "internalType": "address",
          "name": "approved",
          "type": "address"
        },
        {
          "indexed": true,
          "internalType": "uint256",
          "name": "tokenId",
          "type": "uint256"
        }
      ],
      "name": "Approval",
      "type": "event"
    },
    {
      "anonymous": false,
      "inputs": [
        {
          "indexed": true,
          "internalType": "address",
          "name": "owner",
          "type": "address"
        },
        {
          "indexed": true,
          "internalType": "address",
          "name": "operator",
          "type": "address"
        },
        {
          "indexed": false,
          "internalType": "bool",
          "name": "approved",
          "type": "bool"
        }
      ],
      "name": "ApprovalForAll",
      "type": "event"
    },
    {
      "anonymous": false,
      "inputs": [
        {
          "indexed": true,
          "internalType": "uint256",
          "name": "tokenId",
          "type": "uint256"
        },
        {
          "indexed": false,
          "internalType": "address",
          "name": "owner",
          "type": "address"
        },
        {
          "indexed": false,
          "internalType": "uint256",
          "name": "price",
          "type": "uint256"
        },
        {
          "indexed": false,
          "internalType": "address payable",
          "name": "seller",
          "type": "address"
        },
        {
          "indexed": false,
          "internalType": "bool",
          "name": "sold",
          "type": "bool"
        }
      ],
      "name": "MarketItemCreated",
      "type": "event"
    },
    {
      "anonymous": false,
      "inputs": [
        {
          "indexed": true,
          "internalType": "address",
          "name": "from",
          "type": "address"
        },
        {
          "indexed": true,
          "internalType": "address",
          "name": "to",
          "type": "address"
        },
        {
          "indexed": true,
          "internalType": "uint256",
          "name": "tokenId",
          "type": "uint256"
        }
      ],
      "name": "Transfer",
      "type": "event"
    },
    {
      "inputs": [
        {
          "internalType": "address",
          "name": "to",
          "type": "address"
        },
        {
          "internalType": "uint256",
          "name": "tokenId",
          "type": "uint256"
        }
      ],
      "name": "approve",
      "outputs": [],
      "stateMutability": "nonpayable",
      "type": "function"
    },
    {
      "inputs": [
        {
          "internalType": "address",
          "name": "owner",
          "type": "address"
        }
      ],
      "name": "balanceOf",
      "outputs": [
        {
          "internalType": "uint256",
          "name": "",
          "type": "uint256"
        }
      ],
      "stateMutability": "view",
      "type": "function"
    },
    {
      "inputs": [
        {
          "internalType": "string",
          "name": "_tokenURI",
          "type": "string"
        },
        {
          "internalType": "uint256",
          "name": "_tokenPrice",
          "type": "uint256"
        }
      ],
      "name": "createToken",
      "outputs": [
        {
          "internalType": "uint256",
          "name": "",
          "type": "uint256"
        }
      ],
      "stateMutability": "payable",
      "type": "function"
    },
    {
      "inputs": [
        {
          "internalType": "uint256",
          "name": "tokenId",
          "type": "uint256"
        }
      ],
      "name": "getApproved",
      "outputs": [
        {
          "internalType": "address",
          "name": "",
          "type": "address"
        }
      ],
      "stateMutability": "view",
      "type": "function"
    },
    {
      "inputs": [
        {
          "internalType": "uint256",
          "name": "",
          "type": "uint256"
        }
      ],
      "name": "getListingPrice",
      "outputs": [
        {
          "internalType": "uint256",
          "name": "",
          "type": "uint256"
        }
      ],
      "stateMutability": "view",
      "type": "function"
    },
    {
      "inputs": [],
      "name": "getUnsoldItems",
      "outputs": [
        {
          "components": [
            {
              "internalType": "uint256",
              "name": "tokenId",
              "type": "uint256"
            },
            {
              "internalType": "address",
              "name": "owner",
              "type": "address"
            },
            {
              "internalType": "uint256",
              "name": "price",
              "type": "uint256"
            },
            {
              "internalType": "address payable",
              "name": "seller",
              "type": "address"
            },
            {
              "internalType": "bool",
              "name": "sold",
              "type": "bool"
            }
          ],
          "internalType": "struct Marketplace.S_MarketItem[]",
          "name": "",
          "type": "tuple[]"
        }
      ],
      "stateMutability": "view",
      "type": "function"
    },
    {
      "inputs": [],
      "name": "get_seller_items",
      "outputs": [
        {
          "components": [
            {
              "internalType": "uint256",
              "name": "tokenId",
              "type": "uint256"
            },
            {
              "internalType": "address",
              "name": "owner",
              "type": "address"
            },
            {
              "internalType": "uint256",
              "name": "price",
              "type": "uint256"
            },
            {
              "internalType": "address payable",
              "name": "seller",
              "type": "address"
            },
            {
              "internalType": "bool",
              "name": "sold",
              "type": "bool"
            }
          ],
          "internalType": "struct Marketplace.S_MarketItem[]",
          "name": "",
          "type": "tuple[]"
        }
      ],
      "stateMutability": "view",
      "type": "function"
    },
    {
      "inputs": [
        {
          "internalType": "address",
          "name": "owner",
          "type": "address"
        },
        {
          "internalType": "address",
          "name": "operator",
          "type": "address"
        }
      ],
      "name": "isApprovedForAll",
      "outputs": [
        {
          "internalType": "bool",
          "name": "",
          "type": "bool"
        }
      ],
      "stateMutability": "view",
      "type": "function"
    },
    {
      "inputs": [],
      "name": "name",
      "outputs": [
        {
          "internalType": "string",
          "name": "",
          "type": "string"
        }
      ],
      "stateMutability": "view",
      "type": "function"
    },
    {
      "inputs": [
        {
          "internalType": "uint256",
          "name": "tokenId",
          "type": "uint256"
        }
      ],
      "name": "ownerOf",
      "outputs": [
        {
          "internalType": "address",
          "name": "",
          "type": "address"
        }
      ],
      "stateMutability": "view",
      "type": "function"
    },
    {
      "inputs": [],
      "name": "purchased_items",
      "outputs": [
        {
          "components": [
            {
              "internalType": "uint256",
              "name": "tokenId",
              "type": "uint256"
            },
            {
              "internalType": "address",
              "name": "owner",
              "type": "address"
            },
            {
              "internalType": "uint256",
              "name": "price",
              "type": "uint256"
            },
            {
              "internalType": "address payable",
              "name": "seller",
              "type": "address"
            },
            {
              "internalType": "bool",
              "name": "sold",
              "type": "bool"
            }
          ],
          "internalType": "struct Marketplace.S_MarketItem[]",
          "name": "",
          "type": "tuple[]"
        }
      ],
      "stateMutability": "view",
      "type": "function"
    },
    {
      "inputs": [
        {
          "internalType": "uint256",
          "name": "_tokenId",
          "type": "uint256"
        },
        {
          "internalType": "uint256",
          "name": "_price",
          "type": "uint256"
        }
      ],
      "name": "resellMarketItem",
      "outputs": [],
      "stateMutability": "payable",
      "type": "function"
    },
    {
      "inputs": [
        {
          "internalType": "address",
          "name": "from",
          "type": "address"
        },
        {
          "internalType": "address",
          "name": "to",
          "type": "address"
        },
        {
          "internalType": "uint256",
          "name": "tokenId",
          "type": "uint256"
        }
      ],
      "name": "safeTransferFrom",
      "outputs": [],
      "stateMutability": "nonpayable",
      "type": "function"
    },
    {
      "inputs": [
        {
          "internalType": "address",
          "name": "from",
          "type": "address"
        },
        {
          "internalType": "address",
          "name": "to",
          "type": "address"
        },
        {
          "internalType": "uint256",
          "name": "tokenId",
          "type": "uint256"
        },
        {
          "internalType": "bytes",
          "name": "data",
          "type": "bytes"
        }
      ],
      "name": "safeTransferFrom",
      "outputs": [],
      "stateMutability": "nonpayable",
      "type": "function"
    },
    {
      "inputs": [
        {
          "internalType": "uint256",
          "name": "_tokenId",
          "type": "uint256"
        }
      ],
      "name": "saleOfMarketItem",
      "outputs": [],
      "stateMutability": "payable",
      "type": "function"
    },
    {
      "inputs": [
        {
          "internalType": "address",
          "name": "operator",
          "type": "address"
        },
        {
          "internalType": "bool",
          "name": "approved",
          "type": "bool"
        }
      ],
      "name": "setApprovalForAll",
      "outputs": [],
      "stateMutability": "nonpayable",
      "type": "function"
    },
    {
      "inputs": [
        {
          "internalType": "bytes4",
          "name": "interfaceId",
          "type": "bytes4"
        }
      ],
      "name": "supportsInterface",
      "outputs": [
        {
          "internalType": "bool",
          "name": "",
          "type": "bool"
        }
      ],
      "stateMutability": "view",
      "type": "function"
    },
    {
      "inputs": [],
      "name": "symbol",
      "outputs": [
        {
          "internalType": "string",
          "name": "",
          "type": "string"
        }
      ],
      "stateMutability": "view",
      "type": "function"
    },
    {
      "inputs": [
        {
          "internalType": "uint256",
          "name": "tokenId",
          "type": "uint256"
        }
      ],
      "name": "tokenURI",
      "outputs": [
        {
          "internalType": "string",
          "name": "",
          "type": "string"
        }
      ],
      "stateMutability": "view",
      "type": "function"
    },
    {
      "inputs": [
        {
          "internalType": "address",
          "name": "from",
          "type": "address"
        },
        {
          "internalType": "address",
          "name": "to",
          "type": "address"
        },
        {
          "internalType": "uint256",
          "name": "tokenId",
          "type": "uint256"
        }
      ],
      "name": "transferFrom",
      "outputs": [],
      "stateMutability": "nonpayable",
      "type": "function"
    },
    {
      "inputs": [
        {
          "internalType": "uint256",
          "name": "_listingPrice",
          "type": "uint256"
        }
      ],
      "name": "updateListingPrice",
      "outputs": [],
      "stateMutability": "payable",
      "type": "function"
    }
  ],
  "bytecode": "0x6080604052661aa535d3d0c0006009553480156200001c57600080fd5b506040518060400160405280600781526020017f44654d61726b74000000000000000000000000000000000000000000000000008152506040518060400160405280600381526020017f444d54000000000000000000000000000000000000000000000000000000000081525081600090816200009a919062000370565b508060019081620000ac919062000370565b50505033600a60006101000a81548173ffffffffffffffffffffffffffffffffffffffff021916908373ffffffffffffffffffffffffffffffffffffffff16021790555062000457565b600081519050919050565b7f4e487b7100000000000000000000000000000000000000000000000000000000600052604160045260246000fd5b7f4e487b7100000000000000000000000000000000000000000000000000000000600052602260045260246000fd5b600060028204905060018216806200017857607f821691505b6020821081036200018e576200018d62000130565b5b50919050565b60008190508160005260206000209050919050565b60006020601f8301049050919050565b600082821b905092915050565b600060088302620001f87fffffffffffffffffffffffffffffffffffffffffffffffffffffffffffffffff82620001b9565b620002048683620001b9565b95508019841693508086168417925050509392505050565b6000819050919050565b6000819050919050565b6000620002516200024b62000245846200021c565b62000226565b6200021c565b9050919050565b6000819050919050565b6200026d8362000230565b620002856200027c8262000258565b848454620001c6565b825550505050565b600090565b6200029c6200028d565b620002a981848462000262565b505050565b5b81811015620002d157620002c560008262000292565b600181019050620002af565b5050565b601f8211156200032057620002ea8162000194565b620002f584620001a9565b8101602085101562000305578190505b6200031d6200031485620001a9565b830182620002ae565b50505b505050565b600082821c905092915050565b6000620003456000198460080262000325565b1980831691505092915050565b600062000360838362000332565b9150826002028217905092915050565b6200037b82620000f6565b67ffffffffffffffff81111562000397576200039662000101565b5b620003a382546200015f565b620003b0828285620002d5565b600060209050601f831160018114620003e85760008415620003d3578287015190505b620003df858262000352565b8655506200044f565b601f198416620003f88662000194565b60005b828110156200042257848901518255600182019150602085019450602081019050620003fb565b868310156200044257848901516200043e601f89168262000332565b8355505b6001600288020188555050505b505050505050565b61424680620004676000396000f3fe60806040526004361061012a5760003560e01c806372b3b620116100ab578063b88d4fde1161006f578063b88d4fde146103db578063c87b56dd14610404578063d6077fbf14610441578063e0a47c281461047e578063e985e9c5146104a9578063edf7f7aa146104e65761012a565b806372b3b6201461031057806395d89b41146103405780639b8bc1271461036b578063a22cb46514610396578063ae677aa3146103bf5761012a565b80632e2de5a4116100f25780632e2de5a41461022657806342842e0e146102515780636352211e1461027a5780636b52d832146102b757806370a08231146102d35761012a565b806301ffc9a71461012f57806306fdde031461016c578063081812fc14610197578063095ea7b3146101d457806323b872dd146101fd575b600080fd5b34801561013b57600080fd5b5061015660048036038101906101519190612ba4565b610502565b6040516101639190612bec565b60405180910390f35b34801561017857600080fd5b506101816105e4565b60405161018e9190612c97565b60405180910390f35b3480156101a357600080fd5b506101be60048036038101906101b99190612cef565b610676565b6040516101cb9190612d5d565b60405180910390f35b3480156101e057600080fd5b506101fb60048036038101906101f69190612da4565b6106bc565b005b34801561020957600080fd5b50610224600480360381019061021f9190612de4565b6107d3565b005b34801561023257600080fd5b5061023b610833565b6040516102489190612f9c565b60405180910390f35b34801561025d57600080fd5b5061027860048036038101906102739190612de4565b610b1f565b005b34801561028657600080fd5b506102a1600480360381019061029c9190612cef565b610b3f565b6040516102ae9190612d5d565b60405180910390f35b6102d160048036038101906102cc9190612fbe565b610bc5565b005b3480156102df57600080fd5b506102fa60048036038101906102f59190612ffe565b610ded565b604051610307919061303a565b60405180910390f35b61032a6004803603810190610325919061318a565b610ea4565b604051610337919061303a565b60405180910390f35b34801561034c57600080fd5b50610355610ee6565b6040516103629190612c97565b60405180910390f35b34801561037757600080fd5b50610380610f78565b60405161038d9190612f9c565b60405180910390f35b3480156103a257600080fd5b506103bd60048036038101906103b89190613212565b6111e0565b005b6103d960048036038101906103d49190612cef565b6111f6565b005b3480156103e757600080fd5b5061040260048036038101906103fd91906132f3565b611290565b005b34801561041057600080fd5b5061042b60048036038101906104269190612cef565b6112f2565b6040516104389190612c97565b60405180910390f35b34801561044d57600080fd5b5061046860048036038101906104639190612cef565b611404565b604051610475919061303a565b60405180910390f35b34801561048a57600080fd5b50610493611410565b6040516104a09190612f9c565b60405180910390f35b3480156104b557600080fd5b506104d060048036038101906104cb9190613376565b6116fc565b6040516104dd9190612bec565b60405180910390f35b61050060048036038101906104fb9190612cef565b611790565b005b60007f80ac58cd000000000000000000000000000000000000000000000000000000007bffffffffffffffffffffffffffffffffffffffffffffffffffffffff1916827bffffffffffffffffffffffffffffffffffffffffffffffffffffffff191614806105cd57507f5b5e139f000000000000000000000000000000000000000000000000000000007bffffffffffffffffffffffffffffffffffffffffffffffffffffffff1916827bffffffffffffffffffffffffffffffffffffffffffffffffffffffff1916145b806105dd57506105dc82611979565b5b9050919050565b6060600080546105f3906133e5565b80601f016020809104026020016040519081016040528092919081815260200182805461061f906133e5565b801561066c5780601f106106415761010080835404028352916020019161066c565b820191906000526020600020905b81548152906001019060200180831161064f57829003601f168201915b5050505050905090565b6000610681826119e3565b6004600083815260200190815260200160002060009054906101000a900473ffffffffffffffffffffffffffffffffffffffff169050919050565b60006106c782610b3f565b90508073ffffffffffffffffffffffffffffffffffffffff168373ffffffffffffffffffffffffffffffffffffffff1603610737576040517f08c379a000000000000000000000000000000000000000000000000000000000815260040161072e90613488565b60405180910390fd5b8073ffffffffffffffffffffffffffffffffffffffff16610756611a2e565b73ffffffffffffffffffffffffffffffffffffffff16148061078557506107848161077f611a2e565b6116fc565b5b6107c4576040517f08c379a00000000000000000000000000000000000000000000000000000000081526004016107bb9061351a565b60405180910390fd5b6107ce8383611a36565b505050565b6107e46107de611a2e565b82611aef565b610823576040517f08c379a000000000000000000000000000000000000000000000000000000000815260040161081a906135ac565b60405180910390fd5b61082e838383611b84565b505050565b606060006108416007611e7d565b905060008060005b838110156108e9573373ffffffffffffffffffffffffffffffffffffffff16600b600060018461087991906135fb565b815260200190815260200160002060010160009054906101000a900473ffffffffffffffffffffffffffffffffffffffff1673ffffffffffffffffffffffffffffffffffffffff16036108d6576001836108d391906135fb565b92505b80806108e19061362f565b915050610849565b5060008267ffffffffffffffff8111156109065761090561305f565b5b60405190808252806020026020018201604052801561093f57816020015b61092c612adb565b8152602001906001900390816109245790505b50905060005b84811015610b14573373ffffffffffffffffffffffffffffffffffffffff16600b600060018461097591906135fb565b815260200190815260200160002060010160009054906101000a900473ffffffffffffffffffffffffffffffffffffffff1673ffffffffffffffffffffffffffffffffffffffff1603610b015760006001826109d191906135fb565b90506000600b60008381526020019081526020016000209050806040518060a0016040529081600082015481526020016001820160009054906101000a900473ffffffffffffffffffffffffffffffffffffffff1673ffffffffffffffffffffffffffffffffffffffff1673ffffffffffffffffffffffffffffffffffffffff168152602001600282015481526020016003820160009054906101000a900473ffffffffffffffffffffffffffffffffffffffff1673ffffffffffffffffffffffffffffffffffffffff1673ffffffffffffffffffffffffffffffffffffffff1681526020016003820160149054906101000a900460ff161515151581525050848681518110610ae457610ae3613677565b5b6020026020010181905250600185610afc91906135fb565b945050505b8080610b0c9061362f565b915050610945565b508094505050505090565b610b3a83838360405180602001604052806000815250611290565b505050565b600080610b4b83611e8b565b9050600073ffffffffffffffffffffffffffffffffffffffff168173ffffffffffffffffffffffffffffffffffffffff1603610bbc576040517f08c379a0000000000000000000000000000000000000000000000000000000008152600401610bb3906136f2565b60405180910390fd5b80915050919050565b60008111610bd257600080fd5b600b600083815260200190815260200160002060010160009054906101000a900473ffffffffffffffffffffffffffffffffffffffff1673ffffffffffffffffffffffffffffffffffffffff163373ffffffffffffffffffffffffffffffffffffffff1614610c76576040517f08c379a0000000000000000000000000000000000000000000000000000000008152600401610c6d90613784565b60405180910390fd5b60011515600b600084815260200190815260200160002060030160149054906101000a900460ff16151514610ce0576040517f08c379a0000000000000000000000000000000000000000000000000000000008152600401610cd790613816565b60405180910390fd5b6000600b600084815260200190815260200160002060030160146101000a81548160ff02191690831515021790555030600b600084815260200190815260200160002060010160006101000a81548173ffffffffffffffffffffffffffffffffffffffff021916908373ffffffffffffffffffffffffffffffffffffffff16021790555033600b600084815260200190815260200160002060030160006101000a81548173ffffffffffffffffffffffffffffffffffffffff021916908373ffffffffffffffffffffffffffffffffffffffff16021790555080600b600084815260200190815260200160002060020181905550610dde6008611ec8565b610de9333084611b84565b5050565b60008073ffffffffffffffffffffffffffffffffffffffff168273ffffffffffffffffffffffffffffffffffffffff1603610e5d576040517f08c379a0000000000000000000000000000000000000000000000000000000008152600401610e54906138a8565b60405180910390fd5b600360008373ffffffffffffffffffffffffffffffffffffffff1673ffffffffffffffffffffffffffffffffffffffff168152602001908152602001600020549050919050565b6000610eb06007611f24565b6000610ebc6007611e7d565b9050610ec83382611f3a565b610ed28185612157565b610edc81846121c4565b8091505092915050565b606060018054610ef5906133e5565b80601f0160208091040260200160405190810160405280929190818152602001828054610f21906133e5565b8015610f6e5780601f10610f4357610100808354040283529160200191610f6e565b820191906000526020600020905b815481529060010190602001808311610f5157829003601f168201915b5050505050905090565b60606000610f866007611e7d565b90506000610f946008611e7d565b610f9e6007611e7d565b610fa891906138c8565b90506000808267ffffffffffffffff811115610fc757610fc661305f565b5b60405190808252806020026020018201604052801561100057816020015b610fed612adb565b815260200190600190039081610fe55790505b50905060005b848110156111d5573073ffffffffffffffffffffffffffffffffffffffff16600b600060018461103691906135fb565b815260200190815260200160002060010160009054906101000a900473ffffffffffffffffffffffffffffffffffffffff1673ffffffffffffffffffffffffffffffffffffffff16036111c257600060018261109291906135fb565b90506000600b60008381526020019081526020016000209050806040518060a0016040529081600082015481526020016001820160009054906101000a900473ffffffffffffffffffffffffffffffffffffffff1673ffffffffffffffffffffffffffffffffffffffff1673ffffffffffffffffffffffffffffffffffffffff168152602001600282015481526020016003820160009054906101000a900473ffffffffffffffffffffffffffffffffffffffff1673ffffffffffffffffffffffffffffffffffffffff1673ffffffffffffffffffffffffffffffffffffffff1681526020016003820160149054906101000a900460ff1615151515815250508486815181106111a5576111a4613677565b5b60200260200101819052506001856111bd91906135fb565b945050505b80806111cd9061362f565b915050611006565b508094505050505090565b6111f26111eb611a2e565b838361235c565b5050565b600a60009054906101000a900473ffffffffffffffffffffffffffffffffffffffff1673ffffffffffffffffffffffffffffffffffffffff163373ffffffffffffffffffffffffffffffffffffffff1614611286576040517f08c379a000000000000000000000000000000000000000000000000000000000815260040161127d90613948565b60405180910390fd5b8060098190555050565b6112a161129b611a2e565b83611aef565b6112e0576040517f08c379a00000000000000000000000000000000000000000000000000000000081526004016112d7906135ac565b60405180910390fd5b6112ec848484846124c8565b50505050565b60606112fd826119e3565b600060066000848152602001908152602001600020805461131d906133e5565b80601f0160208091040260200160405190810160405280929190818152602001828054611349906133e5565b80156113965780601f1061136b57610100808354040283529160200191611396565b820191906000526020600020905b81548152906001019060200180831161137957829003601f168201915b5050505050905060006113a7612524565b905060008151036113bc5781925050506113ff565b6000825111156113f15780826040516020016113d99291906139a4565b604051602081830303815290604052925050506113ff565b6113fa8461253b565b925050505b919050565b60006009549050919050565b6060600061141e6007611e7d565b905060008060005b838110156114c6573373ffffffffffffffffffffffffffffffffffffffff16600b600060018461145691906135fb565b815260200190815260200160002060030160009054906101000a900473ffffffffffffffffffffffffffffffffffffffff1673ffffffffffffffffffffffffffffffffffffffff16036114b3576001836114b091906135fb565b92505b80806114be9061362f565b915050611426565b5060008267ffffffffffffffff8111156114e3576114e261305f565b5b60405190808252806020026020018201604052801561151c57816020015b611509612adb565b8152602001906001900390816115015790505b50905060005b848110156116f1573373ffffffffffffffffffffffffffffffffffffffff16600b600060018461155291906135fb565b815260200190815260200160002060030160009054906101000a900473ffffffffffffffffffffffffffffffffffffffff1673ffffffffffffffffffffffffffffffffffffffff16036116de5760006001826115ae91906135fb565b90506000600b60008381526020019081526020016000209050806040518060a0016040529081600082015481526020016001820160009054906101000a900473ffffffffffffffffffffffffffffffffffffffff1673ffffffffffffffffffffffffffffffffffffffff1673ffffffffffffffffffffffffffffffffffffffff168152602001600282015481526020016003820160009054906101000a900473ffffffffffffffffffffffffffffffffffffffff1673ffffffffffffffffffffffffffffffffffffffff1673ffffffffffffffffffffffffffffffffffffffff1681526020016003820160149054906101000a900460ff1615151515815250508486815181106116c1576116c0613677565b5b60200260200101819052506001856116d991906135fb565b945050505b80806116e99061362f565b915050611522565b508094505050505090565b6000600560008473ffffffffffffffffffffffffffffffffffffffff1673ffffffffffffffffffffffffffffffffffffffff16815260200190815260200160002060008373ffffffffffffffffffffffffffffffffffffffff1673ffffffffffffffffffffffffffffffffffffffff16815260200190815260200160002060009054906101000a900460ff16905092915050565b6000600b6000838152602001908152602001600020600201549050803410156117ee576040517f08c379a00000000000000000000000000000000000000000000000000000000081526004016117e590613a14565b60405180910390fd5b6000600b600084815260200190815260200160002060030160009054906101000a900473ffffffffffffffffffffffffffffffffffffffff1690506001600b600085815260200190815260200160002060030160146101000a81548160ff02191690831515021790555033600b600085815260200190815260200160002060030160006101000a81548173ffffffffffffffffffffffffffffffffffffffff021916908373ffffffffffffffffffffffffffffffffffffffff1602179055506118b76008611f24565b6118c2303385611b84565b600a60009054906101000a900473ffffffffffffffffffffffffffffffffffffffff1673ffffffffffffffffffffffffffffffffffffffff166108fc6009549081150290604051600060405180830381858888f1935050505015801561192c573d6000803e3d6000fd5b508073ffffffffffffffffffffffffffffffffffffffff166108fc349081150290604051600060405180830381858888f19350505050158015611973573d6000803e3d6000fd5b50505050565b60007f01ffc9a7000000000000000000000000000000000000000000000000000000007bffffffffffffffffffffffffffffffffffffffffffffffffffffffff1916827bffffffffffffffffffffffffffffffffffffffffffffffffffffffff1916149050919050565b6119ec816125a3565b611a2b576040517f08c379a0000000000000000000000000000000000000000000000000000000008152600401611a22906136f2565b60405180910390fd5b50565b600033905090565b816004600083815260200190815260200160002060006101000a81548173ffffffffffffffffffffffffffffffffffffffff021916908373ffffffffffffffffffffffffffffffffffffffff160217905550808273ffffffffffffffffffffffffffffffffffffffff16611aa983610b3f565b73ffffffffffffffffffffffffffffffffffffffff167f8c5be1e5ebec7d5bd14f71427d1e84f3dd0314c0f7b2291e5b200ac8c7c3b92560405160405180910390a45050565b600080611afb83610b3f565b90508073ffffffffffffffffffffffffffffffffffffffff168473ffffffffffffffffffffffffffffffffffffffff161480611b3d5750611b3c81856116fc565b5b80611b7b57508373ffffffffffffffffffffffffffffffffffffffff16611b6384610676565b73ffffffffffffffffffffffffffffffffffffffff16145b91505092915050565b8273ffffffffffffffffffffffffffffffffffffffff16611ba482610b3f565b73ffffffffffffffffffffffffffffffffffffffff1614611bfa576040517f08c379a0000000000000000000000000000000000000000000000000000000008152600401611bf190613aa6565b60405180910390fd5b600073ffffffffffffffffffffffffffffffffffffffff168273ffffffffffffffffffffffffffffffffffffffff1603611c69576040517f08c379a0000000000000000000000000000000000000000000000000000000008152600401611c6090613b38565b60405180910390fd5b611c7683838360016125e4565b8273ffffffffffffffffffffffffffffffffffffffff16611c9682610b3f565b73ffffffffffffffffffffffffffffffffffffffff1614611cec576040517f08c379a0000000000000000000000000000000000000000000000000000000008152600401611ce390613aa6565b60405180910390fd5b6004600082815260200190815260200160002060006101000a81549073ffffffffffffffffffffffffffffffffffffffff02191690556001600360008573ffffffffffffffffffffffffffffffffffffffff1673ffffffffffffffffffffffffffffffffffffffff168152602001908152602001600020600082825403925050819055506001600360008473ffffffffffffffffffffffffffffffffffffffff1673ffffffffffffffffffffffffffffffffffffffff16815260200190815260200160002060008282540192505081905550816002600083815260200190815260200160002060006101000a81548173ffffffffffffffffffffffffffffffffffffffff021916908373ffffffffffffffffffffffffffffffffffffffff160217905550808273ffffffffffffffffffffffffffffffffffffffff168473ffffffffffffffffffffffffffffffffffffffff167fddf252ad1be2c89b69c2b068fc378daa952ba7f163c4a11628f55a4df523b3ef60405160405180910390a4611e78838383600161270a565b505050565b600081600001549050919050565b60006002600083815260200190815260200160002060009054906101000a900473ffffffffffffffffffffffffffffffffffffffff169050919050565b60008160000154905060008111611f14576040517f08c379a0000000000000000000000000000000000000000000000000000000008152600401611f0b90613ba4565b60405180910390fd5b6001810382600001819055505050565b6001816000016000828254019250508190555050565b600073ffffffffffffffffffffffffffffffffffffffff168273ffffffffffffffffffffffffffffffffffffffff1603611fa9576040517f08c379a0000000000000000000000000000000000000000000000000000000008152600401611fa090613c10565b60405180910390fd5b611fb2816125a3565b15611ff2576040517f08c379a0000000000000000000000000000000000000000000000000000000008152600401611fe990613c7c565b60405180910390fd5b6120006000838360016125e4565b612009816125a3565b15612049576040517f08c379a000000000000000000000000000000000000000000000000000000000815260040161204090613c7c565b60405180910390fd5b6001600360008473ffffffffffffffffffffffffffffffffffffffff1673ffffffffffffffffffffffffffffffffffffffff16815260200190815260200160002060008282540192505081905550816002600083815260200190815260200160002060006101000a81548173ffffffffffffffffffffffffffffffffffffffff021916908373ffffffffffffffffffffffffffffffffffffffff160217905550808273ffffffffffffffffffffffffffffffffffffffff16600073ffffffffffffffffffffffffffffffffffffffff167fddf252ad1be2c89b69c2b068fc378daa952ba7f163c4a11628f55a4df523b3ef60405160405180910390a461215360008383600161270a565b5050565b612160826125a3565b61219f576040517f08c379a000000000000000000000000000000000000000000000000000000000815260040161219690613d0e565b60405180910390fd5b806006600084815260200190815260200160002090816121bf9190613eda565b505050565b600081116121d157600080fd5b6009543410156121e057600080fd5b6040518060a001604052808381526020013073ffffffffffffffffffffffffffffffffffffffff1681526020018281526020013373ffffffffffffffffffffffffffffffffffffffff16815260200160001515815250600b60008481526020019081526020016000206000820151816000015560208201518160010160006101000a81548173ffffffffffffffffffffffffffffffffffffffff021916908373ffffffffffffffffffffffffffffffffffffffff1602179055506040820151816002015560608201518160030160006101000a81548173ffffffffffffffffffffffffffffffffffffffff021916908373ffffffffffffffffffffffffffffffffffffffff16021790555060808201518160030160146101000a81548160ff021916908315150217905550905050612319333084611b84565b817f802c20517e0da99e615d98240de38d3548406dba2cb0607725d0ac49e65eee1d30833360006040516123509493929190613fbb565b60405180910390a25050565b8173ffffffffffffffffffffffffffffffffffffffff168373ffffffffffffffffffffffffffffffffffffffff16036123ca576040517f08c379a00000000000000000000000000000000000000000000000000000000081526004016123c19061404c565b60405180910390fd5b80600560008573ffffffffffffffffffffffffffffffffffffffff1673ffffffffffffffffffffffffffffffffffffffff16815260200190815260200160002060008473ffffffffffffffffffffffffffffffffffffffff1673ffffffffffffffffffffffffffffffffffffffff16815260200190815260200160002060006101000a81548160ff0219169083151502179055508173ffffffffffffffffffffffffffffffffffffffff168373ffffffffffffffffffffffffffffffffffffffff167f17307eab39ab6107e8899845ad3d59bd9653f200f220920489ca2b5937696c31836040516124bb9190612bec565b60405180910390a3505050565b6124d3848484611b84565b6124df84848484612710565b61251e576040517f08c379a0000000000000000000000000000000000000000000000000000000008152600401612515906140de565b60405180910390fd5b50505050565b606060405180602001604052806000815250905090565b6060612546826119e3565b6000612550612524565b90506000815111612570576040518060200160405280600081525061259b565b8061257a84612897565b60405160200161258b9291906139a4565b6040516020818303038152906040525b915050919050565b60008073ffffffffffffffffffffffffffffffffffffffff166125c583611e8b565b73ffffffffffffffffffffffffffffffffffffffff1614159050919050565b600181111561270457600073ffffffffffffffffffffffffffffffffffffffff168473ffffffffffffffffffffffffffffffffffffffff16146126785780600360008673ffffffffffffffffffffffffffffffffffffffff1673ffffffffffffffffffffffffffffffffffffffff168152602001908152602001600020600082825461267091906138c8565b925050819055505b600073ffffffffffffffffffffffffffffffffffffffff168373ffffffffffffffffffffffffffffffffffffffff16146127035780600360008573ffffffffffffffffffffffffffffffffffffffff1673ffffffffffffffffffffffffffffffffffffffff16815260200190815260200160002060008282546126fb91906135fb565b925050819055505b5b50505050565b50505050565b60006127318473ffffffffffffffffffffffffffffffffffffffff16612965565b1561288a578373ffffffffffffffffffffffffffffffffffffffff1663150b7a0261275a611a2e565b8786866040518563ffffffff1660e01b815260040161277c9493929190614153565b6020604051808303816000875af19250505080156127b857506040513d601f19601f820116820180604052508101906127b591906141b4565b60015b61283a573d80600081146127e8576040519150601f19603f3d011682016040523d82523d6000602084013e6127ed565b606091505b506000815103612832576040517f08c379a0000000000000000000000000000000000000000000000000000000008152600401612829906140de565b60405180910390fd5b805181602001fd5b63150b7a0260e01b7bffffffffffffffffffffffffffffffffffffffffffffffffffffffff1916817bffffffffffffffffffffffffffffffffffffffffffffffffffffffff19161491505061288f565b600190505b949350505050565b6060600060016128a684612988565b01905060008167ffffffffffffffff8111156128c5576128c461305f565b5b6040519080825280601f01601f1916602001820160405280156128f75781602001600182028036833780820191505090505b509050600082602001820190505b60011561295a578080600190039150507f3031323334353637383961626364656600000000000000000000000000000000600a86061a8153600a858161294e5761294d6141e1565b5b04945060008503612905575b819350505050919050565b6000808273ffffffffffffffffffffffffffffffffffffffff163b119050919050565b600080600090507a184f03e93ff9f4daa797ed6e38ed64bf6a1f01000000000000000083106129e6577a184f03e93ff9f4daa797ed6e38ed64bf6a1f01000000000000000083816129dc576129db6141e1565b5b0492506040810190505b6d04ee2d6d415b85acef81000000008310612a23576d04ee2d6d415b85acef81000000008381612a1957612a186141e1565b5b0492506020810190505b662386f26fc100008310612a5257662386f26fc100008381612a4857612a476141e1565b5b0492506010810190505b6305f5e1008310612a7b576305f5e1008381612a7157612a706141e1565b5b0492506008810190505b6127108310612aa0576127108381612a9657612a956141e1565b5b0492506004810190505b60648310612ac35760648381612ab957612ab86141e1565b5b0492506002810190505b600a8310612ad2576001810190505b80915050919050565b6040518060a0016040528060008152602001600073ffffffffffffffffffffffffffffffffffffffff16815260200160008152602001600073ffffffffffffffffffffffffffffffffffffffff1681526020016000151581525090565b6000604051905090565b600080fd5b600080fd5b60007fffffffff0000000000000000000000000000000000000000000000000000000082169050919050565b612b8181612b4c565b8114612b8c57600080fd5b50565b600081359050612b9e81612b78565b92915050565b600060208284031215612bba57612bb9612b42565b5b6000612bc884828501612b8f565b91505092915050565b60008115159050919050565b612be681612bd1565b82525050565b6000602082019050612c016000830184612bdd565b92915050565b600081519050919050565b600082825260208201905092915050565b60005b83811015612c41578082015181840152602081019050612c26565b60008484015250505050565b6000601f19601f8301169050919050565b6000612c6982612c07565b612c738185612c12565b9350612c83818560208601612c23565b612c8c81612c4d565b840191505092915050565b60006020820190508181036000830152612cb18184612c5e565b905092915050565b6000819050919050565b612ccc81612cb9565b8114612cd757600080fd5b50565b600081359050612ce981612cc3565b92915050565b600060208284031215612d0557612d04612b42565b5b6000612d1384828501612cda565b91505092915050565b600073ffffffffffffffffffffffffffffffffffffffff82169050919050565b6000612d4782612d1c565b9050919050565b612d5781612d3c565b82525050565b6000602082019050612d726000830184612d4e565b92915050565b612d8181612d3c565b8114612d8c57600080fd5b50565b600081359050612d9e81612d78565b92915050565b60008060408385031215612dbb57612dba612b42565b5b6000612dc985828601612d8f565b9250506020612dda85828601612cda565b9150509250929050565b600080600060608486031215612dfd57612dfc612b42565b5b6000612e0b86828701612d8f565b9350506020612e1c86828701612d8f565b9250506040612e2d86828701612cda565b9150509250925092565b600081519050919050565b600082825260208201905092915050565b6000819050602082019050919050565b612e6c81612cb9565b82525050565b612e7b81612d3c565b82525050565b6000612e8c82612d1c565b9050919050565b612e9c81612e81565b82525050565b612eab81612bd1565b82525050565b60a082016000820151612ec76000850182612e63565b506020820151612eda6020850182612e72565b506040820151612eed6040850182612e63565b506060820151612f006060850182612e93565b506080820151612f136080850182612ea2565b50505050565b6000612f258383612eb1565b60a08301905092915050565b6000602082019050919050565b6000612f4982612e37565b612f538185612e42565b9350612f5e83612e53565b8060005b83811015612f8f578151612f768882612f19565b9750612f8183612f31565b925050600181019050612f62565b5085935050505092915050565b60006020820190508181036000830152612fb68184612f3e565b905092915050565b60008060408385031215612fd557612fd4612b42565b5b6000612fe385828601612cda565b9250506020612ff485828601612cda565b9150509250929050565b60006020828403121561301457613013612b42565b5b600061302284828501612d8f565b91505092915050565b61303481612cb9565b82525050565b600060208201905061304f600083018461302b565b92915050565b600080fd5b600080fd5b7f4e487b7100000000000000000000000000000000000000000000000000000000600052604160045260246000fd5b61309782612c4d565b810181811067ffffffffffffffff821117156130b6576130b561305f565b5b80604052505050565b60006130c9612b38565b90506130d5828261308e565b919050565b600067ffffffffffffffff8211156130f5576130f461305f565b5b6130fe82612c4d565b9050602081019050919050565b82818337600083830152505050565b600061312d613128846130da565b6130bf565b9050828152602081018484840111156131495761314861305a565b5b61315484828561310b565b509392505050565b600082601f83011261317157613170613055565b5b813561318184826020860161311a565b91505092915050565b600080604083850312156131a1576131a0612b42565b5b600083013567ffffffffffffffff8111156131bf576131be612b47565b5b6131cb8582860161315c565b92505060206131dc85828601612cda565b9150509250929050565b6131ef81612bd1565b81146131fa57600080fd5b50565b60008135905061320c816131e6565b92915050565b6000806040838503121561322957613228612b42565b5b600061323785828601612d8f565b9250506020613248858286016131fd565b9150509250929050565b600067ffffffffffffffff82111561326d5761326c61305f565b5b61327682612c4d565b9050602081019050919050565b600061329661329184613252565b6130bf565b9050828152602081018484840111156132b2576132b161305a565b5b6132bd84828561310b565b509392505050565b600082601f8301126132da576132d9613055565b5b81356132ea848260208601613283565b91505092915050565b6000806000806080858703121561330d5761330c612b42565b5b600061331b87828801612d8f565b945050602061332c87828801612d8f565b935050604061333d87828801612cda565b925050606085013567ffffffffffffffff81111561335e5761335d612b47565b5b61336a878288016132c5565b91505092959194509250565b6000806040838503121561338d5761338c612b42565b5b600061339b85828601612d8f565b92505060206133ac85828601612d8f565b9150509250929050565b7f4e487b7100000000000000000000000000000000000000000000000000000000600052602260045260246000fd5b600060028204905060018216806133fd57607f821691505b6020821081036134105761340f6133b6565b5b50919050565b7f4552433732313a20617070726f76616c20746f2063757272656e74206f776e6560008201527f7200000000000000000000000000000000000000000000000000000000000000602082015250565b6000613472602183612c12565b915061347d82613416565b604082019050919050565b600060208201905081810360008301526134a181613465565b9050919050565b7f4552433732313a20617070726f76652063616c6c6572206973206e6f7420746f60008201527f6b656e206f776e6572206f7220617070726f76656420666f7220616c6c000000602082015250565b6000613504603d83612c12565b915061350f826134a8565b604082019050919050565b60006020820190508181036000830152613533816134f7565b9050919050565b7f4552433732313a2063616c6c6572206973206e6f7420746f6b656e206f776e6560008201527f72206f7220617070726f76656400000000000000000000000000000000000000602082015250565b6000613596602d83612c12565b91506135a18261353a565b604082019050919050565b600060208201905081810360008301526135c581613589565b9050919050565b7f4e487b7100000000000000000000000000000000000000000000000000000000600052601160045260246000fd5b600061360682612cb9565b915061361183612cb9565b9250828201905080821115613629576136286135cc565b5b92915050565b600061363a82612cb9565b91507fffffffffffffffffffffffffffffffffffffffffffffffffffffffffffffffff820361366c5761366b6135cc565b5b600182019050919050565b7f4e487b7100000000000000000000000000000000000000000000000000000000600052603260045260246000fd5b7f4552433732313a20696e76616c696420746f6b656e2049440000000000000000600082015250565b60006136dc601883612c12565b91506136e7826136a6565b602082019050919050565b6000602082019050818103600083015261370b816136cf565b9050919050565b7f796f752073686f756c6420626520746865206f776e657220746f20726573656c60008201527f6c2074686973206974656d000000000000000000000000000000000000000000602082015250565b600061376e602b83612c12565b915061377982613712565b604082019050919050565b6000602082019050818103600083015261379d81613761565b9050919050565b7f796f752063616e277420726573656c6c20616e206974656d207468617420697360008201527f20616c7265616479206f6e2073616c6500000000000000000000000000000000602082015250565b6000613800603083612c12565b915061380b826137a4565b604082019050919050565b6000602082019050818103600083015261382f816137f3565b9050919050565b7f4552433732313a2061646472657373207a65726f206973206e6f74206120766160008201527f6c6964206f776e65720000000000000000000000000000000000000000000000602082015250565b6000613892602983612c12565b915061389d82613836565b604082019050919050565b600060208201905081810360008301526138c181613885565b9050919050565b60006138d382612cb9565b91506138de83612cb9565b92508282039050818111156138f6576138f56135cc565b5b92915050565b7f6f6e6c7920746865206f776e65722063616e206d6f6469667920746869730000600082015250565b6000613932601e83612c12565b915061393d826138fc565b602082019050919050565b6000602082019050818103600083015261396181613925565b9050919050565b600081905092915050565b600061397e82612c07565b6139888185613968565b9350613998818560208601612c23565b80840191505092915050565b60006139b08285613973565b91506139bc8284613973565b91508190509392505050565b7f696e73756666696369656e742066756e64730000000000000000000000000000600082015250565b60006139fe601283612c12565b9150613a09826139c8565b602082019050919050565b60006020820190508181036000830152613a2d816139f1565b9050919050565b7f4552433732313a207472616e736665722066726f6d20696e636f72726563742060008201527f6f776e6572000000000000000000000000000000000000000000000000000000602082015250565b6000613a90602583612c12565b9150613a9b82613a34565b604082019050919050565b60006020820190508181036000830152613abf81613a83565b9050919050565b7f4552433732313a207472616e7366657220746f20746865207a65726f2061646460008201527f7265737300000000000000000000000000000000000000000000000000000000602082015250565b6000613b22602483612c12565b9150613b2d82613ac6565b604082019050919050565b60006020820190508181036000830152613b5181613b15565b9050919050565b7f436f756e7465723a2064656372656d656e74206f766572666c6f770000000000600082015250565b6000613b8e601b83612c12565b9150613b9982613b58565b602082019050919050565b60006020820190508181036000830152613bbd81613b81565b9050919050565b7f4552433732313a206d696e7420746f20746865207a65726f2061646472657373600082015250565b6000613bfa602083612c12565b9150613c0582613bc4565b602082019050919050565b60006020820190508181036000830152613c2981613bed565b9050919050565b7f4552433732313a20746f6b656e20616c7265616479206d696e74656400000000600082015250565b6000613c66601c83612c12565b9150613c7182613c30565b602082019050919050565b60006020820190508181036000830152613c9581613c59565b9050919050565b7f45524337323155524953746f726167653a2055524920736574206f66206e6f6e60008201527f6578697374656e7420746f6b656e000000000000000000000000000000000000602082015250565b6000613cf8602e83612c12565b9150613d0382613c9c565b604082019050919050565b60006020820190508181036000830152613d2781613ceb565b9050919050565b60008190508160005260206000209050919050565b60006020601f8301049050919050565b600082821b905092915050565b600060088302613d907fffffffffffffffffffffffffffffffffffffffffffffffffffffffffffffffff82613d53565b613d9a8683613d53565b95508019841693508086168417925050509392505050565b6000819050919050565b6000613dd7613dd2613dcd84612cb9565b613db2565b612cb9565b9050919050565b6000819050919050565b613df183613dbc565b613e05613dfd82613dde565b848454613d60565b825550505050565b600090565b613e1a613e0d565b613e25818484613de8565b505050565b5b81811015613e4957613e3e600082613e12565b600181019050613e2b565b5050565b601f821115613e8e57613e5f81613d2e565b613e6884613d43565b81016020851015613e77578190505b613e8b613e8385613d43565b830182613e2a565b50505b505050565b600082821c905092915050565b6000613eb160001984600802613e93565b1980831691505092915050565b6000613eca8383613ea0565b9150826002028217905092915050565b613ee382612c07565b67ffffffffffffffff811115613efc57613efb61305f565b5b613f0682546133e5565b613f11828285613e4d565b600060209050601f831160018114613f445760008415613f32578287015190505b613f3c8582613ebe565b865550613fa4565b601f198416613f5286613d2e565b60005b82811015613f7a57848901518255600182019150602085019450602081019050613f55565b86831015613f975784890151613f93601f891682613ea0565b8355505b6001600288020188555050505b505050505050565b613fb581612e81565b82525050565b6000608082019050613fd06000830187612d4e565b613fdd602083018661302b565b613fea6040830185613fac565b613ff76060830184612bdd565b95945050505050565b7f4552433732313a20617070726f766520746f2063616c6c657200000000000000600082015250565b6000614036601983612c12565b915061404182614000565b602082019050919050565b6000602082019050818103600083015261406581614029565b9050919050565b7f4552433732313a207472616e7366657220746f206e6f6e20455243373231526560008201527f63656976657220696d706c656d656e7465720000000000000000000000000000602082015250565b60006140c8603283612c12565b91506140d38261406c565b604082019050919050565b600060208201905081810360008301526140f7816140bb565b9050919050565b600081519050919050565b600082825260208201905092915050565b6000614125826140fe565b61412f8185614109565b935061413f818560208601612c23565b61414881612c4d565b840191505092915050565b60006080820190506141686000830187612d4e565b6141756020830186612d4e565b614182604083018561302b565b8181036060830152614194818461411a565b905095945050505050565b6000815190506141ae81612b78565b92915050565b6000602082840312156141ca576141c9612b42565b5b60006141d88482850161419f565b91505092915050565b7f4e487b7100000000000000000000000000000000000000000000000000000000600052601260045260246000fdfea264697066735822122069183048f58050c4709460b44730519693a588a2541d2b1bfdec868dd8edd6ff64736f6c63430008110033",
  "linkReferences": {},
  "deployedLinkReferences": {}
}