{
    "_format": "hh-sol-artifact-1",
    "contractName": "DeMarketplace",
    "sourceName": "contracts/Market.sol",
    "abi": [
        {
            "inputs": [],
            "stateMutability": "nonpayable",
            "type": "constructor"
        },
        {
            "anonymous": false,
            "inputs": [
                {
                    "indexed": true,
                    "internalType": "address",
                    "name": "owner",
                    "type": "address"
                },
                {
                    "indexed": true,
                    "internalType": "address",
                    "name": "approved",
                    "type": "address"
                },
                {
                    "indexed": true,
                    "internalType": "uint256",
                    "name": "tokenId",
                    "type": "uint256"
                }
            ],
            "name": "Approval",
            "type": "event"
        },
        {
            "anonymous": false,
            "inputs": [
                {
                    "indexed": true,
                    "internalType": "address",
                    "name": "owner",
                    "type": "address"
                },
                {
                    "indexed": true,
                    "internalType": "address",
                    "name": "operator",
                    "type": "address"
                },
                {
                    "indexed": false,
                    "internalType": "bool",
                    "name": "approved",
                    "type": "bool"
                }
            ],
            "name": "ApprovalForAll",
            "type": "event"
        },
        {
            "anonymous": false,
            "inputs": [
                {
                    "indexed": true,
                    "internalType": "uint256",
                    "name": "tokenId",
                    "type": "uint256"
                },
                {
                    "indexed": false,
                    "internalType": "address",
                    "name": "owner",
                    "type": "address"
                },
                {
                    "indexed": false,
                    "internalType": "uint256",
                    "name": "price",
                    "type": "uint256"
                },
                {
                    "indexed": false,
                    "internalType": "address payable",
                    "name": "seller",
                    "type": "address"
                },
                {
                    "indexed": false,
                    "internalType": "bool",
                    "name": "sold",
                    "type": "bool"
                }
            ],
            "name": "MarketItemCreated",
            "type": "event"
        },
        {
            "anonymous": false,
            "inputs": [
                {
                    "indexed": true,
                    "internalType": "address",
                    "name": "from",
                    "type": "address"
                },
                {
                    "indexed": true,
                    "internalType": "address",
                    "name": "to",
                    "type": "address"
                },
                {
                    "indexed": true,
                    "internalType": "uint256",
                    "name": "tokenId",
                    "type": "uint256"
                }
            ],
            "name": "Transfer",
            "type": "event"
        },
        {
            "inputs": [
                {
                    "internalType": "address",
                    "name": "to",
                    "type": "address"
                },
                {
                    "internalType": "uint256",
                    "name": "tokenId",
                    "type": "uint256"
                }
            ],
            "name": "approve",
            "outputs": [],
            "stateMutability": "nonpayable",
            "type": "function"
        },
        {
            "inputs": [
                {
                    "internalType": "address",
                    "name": "owner",
                    "type": "address"
                }
            ],
            "name": "balanceOf",
            "outputs": [
                {
                    "internalType": "uint256",
                    "name": "",
                    "type": "uint256"
                }
            ],
            "stateMutability": "view",
            "type": "function"
        },
        {
            "inputs": [
                {
                    "internalType": "uint256",
                    "name": "_tokenId",
                    "type": "uint256"
                }
            ],
            "name": "buyMarketItem",
            "outputs": [],
            "stateMutability": "payable",
            "type": "function"
        },
        {
            "inputs": [
                {
                    "internalType": "string",
                    "name": "_tokenURI",
                    "type": "string"
                },
                {
                    "internalType": "uint256",
                    "name": "_tokenPrice",
                    "type": "uint256"
                }
            ],
            "name": "createToken",
            "outputs": [
                {
                    "internalType": "uint256",
                    "name": "",
                    "type": "uint256"
                }
            ],
            "stateMutability": "nonpayable",
            "type": "function"
        },
        {
            "inputs": [
                {
                    "internalType": "uint256",
                    "name": "tokenId",
                    "type": "uint256"
                }
            ],
            "name": "getApproved",
            "outputs": [
                {
                    "internalType": "address",
                    "name": "",
                    "type": "address"
                }
            ],
            "stateMutability": "view",
            "type": "function"
        },
        {
            "inputs": [],
            "name": "getLatestListedToken",
            "outputs": [
                {
                    "components": [
                        {
                            "internalType": "uint256",
                            "name": "tokenId",
                            "type": "uint256"
                        },
                        {
                            "internalType": "address",
                            "name": "owner",
                            "type": "address"
                        },
                        {
                            "internalType": "uint256",
                            "name": "price",
                            "type": "uint256"
                        },
                        {
                            "internalType": "address payable",
                            "name": "seller",
                            "type": "address"
                        },
                        {
                            "internalType": "bool",
                            "name": "sold",
                            "type": "bool"
                        }
                    ],
                    "internalType": "struct DeMarketplace.S_MarketItem",
                    "name": "",
                    "type": "tuple"
                }
            ],
            "stateMutability": "view",
            "type": "function"
        },
        {
            "inputs": [],
            "name": "getListingPrice",
            "outputs": [
                {
                    "internalType": "uint256",
                    "name": "",
                    "type": "uint256"
                }
            ],
            "stateMutability": "view",
            "type": "function"
        },
        {
            "inputs": [],
            "name": "getUnsoldItems",
            "outputs": [
                {
                    "components": [
                        {
                            "internalType": "uint256",
                            "name": "tokenId",
                            "type": "uint256"
                        },
                        {
                            "internalType": "address",
                            "name": "owner",
                            "type": "address"
                        },
                        {
                            "internalType": "uint256",
                            "name": "price",
                            "type": "uint256"
                        },
                        {
                            "internalType": "address payable",
                            "name": "seller",
                            "type": "address"
                        },
                        {
                            "internalType": "bool",
                            "name": "sold",
                            "type": "bool"
                        }
                    ],
                    "internalType": "struct DeMarketplace.S_MarketItem[]",
                    "name": "",
                    "type": "tuple[]"
                }
            ],
            "stateMutability": "view",
            "type": "function"
        },
        {
            "inputs": [],
            "name": "get_seller_items",
            "outputs": [
                {
                    "components": [
                        {
                            "internalType": "uint256",
                            "name": "tokenId",
                            "type": "uint256"
                        },
                        {
                            "internalType": "address",
                            "name": "owner",
                            "type": "address"
                        },
                        {
                            "internalType": "uint256",
                            "name": "price",
                            "type": "uint256"
                        },
                        {
                            "internalType": "address payable",
                            "name": "seller",
                            "type": "address"
                        },
                        {
                            "internalType": "bool",
                            "name": "sold",
                            "type": "bool"
                        }
                    ],
                    "internalType": "struct DeMarketplace.S_MarketItem[]",
                    "name": "",
                    "type": "tuple[]"
                }
            ],
            "stateMutability": "view",
            "type": "function"
        },
        {
            "inputs": [
                {
                    "internalType": "address",
                    "name": "owner",
                    "type": "address"
                },
                {
                    "internalType": "address",
                    "name": "operator",
                    "type": "address"
                }
            ],
            "name": "isApprovedForAll",
            "outputs": [
                {
                    "internalType": "bool",
                    "name": "",
                    "type": "bool"
                }
            ],
            "stateMutability": "view",
            "type": "function"
        },
        {
            "inputs": [],
            "name": "name",
            "outputs": [
                {
                    "internalType": "string",
                    "name": "",
                    "type": "string"
                }
            ],
            "stateMutability": "view",
            "type": "function"
        },
        {
            "inputs": [
                {
                    "internalType": "uint256",
                    "name": "tokenId",
                    "type": "uint256"
                }
            ],
            "name": "ownerOf",
            "outputs": [
                {
                    "internalType": "address",
                    "name": "",
                    "type": "address"
                }
            ],
            "stateMutability": "view",
            "type": "function"
        },
        {
            "inputs": [],
            "name": "purchased_items",
            "outputs": [
                {
                    "components": [
                        {
                            "internalType": "uint256",
                            "name": "tokenId",
                            "type": "uint256"
                        },
                        {
                            "internalType": "address",
                            "name": "owner",
                            "type": "address"
                        },
                        {
                            "internalType": "uint256",
                            "name": "price",
                            "type": "uint256"
                        },
                        {
                            "internalType": "address payable",
                            "name": "seller",
                            "type": "address"
                        },
                        {
                            "internalType": "bool",
                            "name": "sold",
                            "type": "bool"
                        }
                    ],
                    "internalType": "struct DeMarketplace.S_MarketItem[]",
                    "name": "",
                    "type": "tuple[]"
                }
            ],
            "stateMutability": "view",
            "type": "function"
        },
        {
            "inputs": [
                {
                    "internalType": "uint256",
                    "name": "_tokenId",
                    "type": "uint256"
                },
                {
                    "internalType": "uint256",
                    "name": "_price",
                    "type": "uint256"
                }
            ],
            "name": "resellMarketItem",
            "outputs": [],
            "stateMutability": "payable",
            "type": "function"
        },
        {
            "inputs": [
                {
                    "internalType": "address",
                    "name": "from",
                    "type": "address"
                },
                {
                    "internalType": "address",
                    "name": "to",
                    "type": "address"
                },
                {
                    "internalType": "uint256",
                    "name": "tokenId",
                    "type": "uint256"
                }
            ],
            "name": "safeTransferFrom",
            "outputs": [],
            "stateMutability": "nonpayable",
            "type": "function"
        },
        {
            "inputs": [
                {
                    "internalType": "address",
                    "name": "from",
                    "type": "address"
                },
                {
                    "internalType": "address",
                    "name": "to",
                    "type": "address"
                },
                {
                    "internalType": "uint256",
                    "name": "tokenId",
                    "type": "uint256"
                },
                {
                    "internalType": "bytes",
                    "name": "data",
                    "type": "bytes"
                }
            ],
            "name": "safeTransferFrom",
            "outputs": [],
            "stateMutability": "nonpayable",
            "type": "function"
        },
        {
            "inputs": [
                {
                    "internalType": "address",
                    "name": "operator",
                    "type": "address"
                },
                {
                    "internalType": "bool",
                    "name": "approved",
                    "type": "bool"
                }
            ],
            "name": "setApprovalForAll",
            "outputs": [],
            "stateMutability": "nonpayable",
            "type": "function"
        },
        {
            "inputs": [
                {
                    "internalType": "bytes4",
                    "name": "interfaceId",
                    "type": "bytes4"
                }
            ],
            "name": "supportsInterface",
            "outputs": [
                {
                    "internalType": "bool",
                    "name": "",
                    "type": "bool"
                }
            ],
            "stateMutability": "view",
            "type": "function"
        },
        {
            "inputs": [],
            "name": "symbol",
            "outputs": [
                {
                    "internalType": "string",
                    "name": "",
                    "type": "string"
                }
            ],
            "stateMutability": "view",
            "type": "function"
        },
        {
            "inputs": [
                {
                    "internalType": "uint256",
                    "name": "tokenId",
                    "type": "uint256"
                }
            ],
            "name": "tokenURI",
            "outputs": [
                {
                    "internalType": "string",
                    "name": "",
                    "type": "string"
                }
            ],
            "stateMutability": "view",
            "type": "function"
        },
        {
            "inputs": [
                {
                    "internalType": "address",
                    "name": "from",
                    "type": "address"
                },
                {
                    "internalType": "address",
                    "name": "to",
                    "type": "address"
                },
                {
                    "internalType": "uint256",
                    "name": "tokenId",
                    "type": "uint256"
                }
            ],
            "name": "transferFrom",
            "outputs": [],
            "stateMutability": "nonpayable",
            "type": "function"
        },
        {
            "inputs": [
                {
                    "internalType": "uint256",
                    "name": "_listingPrice",
                    "type": "uint256"
                }
            ],
            "name": "updateListingPrice",
            "outputs": [],
            "stateMutability": "payable",
            "type": "function"
        }
    ],
    "bytecode": "0x60806040526602aa1efb94e0006009553480156200001c57600080fd5b506040518060400160405280600781526020017f44654d61726b74000000000000000000000000000000000000000000000000008152506040518060400160405280600381526020017f444d54000000000000000000000000000000000000000000000000000000000081525081600090816200009a919062000370565b508060019081620000ac919062000370565b50505033600a60006101000a81548173ffffffffffffffffffffffffffffffffffffffff021916908373ffffffffffffffffffffffffffffffffffffffff16021790555062000457565b600081519050919050565b7f4e487b7100000000000000000000000000000000000000000000000000000000600052604160045260246000fd5b7f4e487b7100000000000000000000000000000000000000000000000000000000600052602260045260246000fd5b600060028204905060018216806200017857607f821691505b6020821081036200018e576200018d62000130565b5b50919050565b60008190508160005260206000209050919050565b60006020601f8301049050919050565b600082821b905092915050565b600060088302620001f87fffffffffffffffffffffffffffffffffffffffffffffffffffffffffffffffff82620001b9565b620002048683620001b9565b95508019841693508086168417925050509392505050565b6000819050919050565b6000819050919050565b6000620002516200024b62000245846200021c565b62000226565b6200021c565b9050919050565b6000819050919050565b6200026d8362000230565b620002856200027c8262000258565b848454620001c6565b825550505050565b600090565b6200029c6200028d565b620002a981848462000262565b505050565b5b81811015620002d157620002c560008262000292565b600181019050620002af565b5050565b601f8211156200032057620002ea8162000194565b620002f584620001a9565b8101602085101562000305578190505b6200031d6200031485620001a9565b830182620002ae565b50505b505050565b600082821c905092915050565b6000620003456000198460080262000325565b1980831691505092915050565b600062000360838362000332565b9150826002028217905092915050565b6200037b82620000f6565b67ffffffffffffffff81111562000397576200039662000101565b5b620003a382546200015f565b620003b0828285620002d5565b600060209050601f831160018114620003e85760008415620003d3578287015190505b620003df858262000352565b8655506200044f565b601f198416620003f88662000194565b60005b828110156200042257848901518255600182019150602085019450602081019050620003fb565b868310156200044257848901516200043e601f89168262000332565b8355505b6001600288020188555050505b505050505050565b6145fe80620004676000396000f3fe6080604052600436106101355760003560e01c80636b52d832116100ab578063a22cb4651161006f578063a22cb46514610420578063ae677aa314610449578063b88d4fde14610465578063c87b56dd1461048e578063e0a47c28146104cb578063e985e9c5146104f657610135565b80636b52d8321461033457806370a082311461035057806372b3b6201461038d57806395d89b41146103ca5780639b8bc127146103f557610135565b806312e85585116100fd57806312e855851461023357806323b872dd1461025e5780632e2de5a414610287578063351901c3146102b257806342842e0e146102ce5780636352211e146102f757610135565b806301d7ccbc1461013a57806301ffc9a71461016557806306fdde03146101a2578063081812fc146101cd578063095ea7b31461020a575b600080fd5b34801561014657600080fd5b5061014f610533565b60405161015c9190612e6d565b60405180910390f35b34801561017157600080fd5b5061018c60048036038101906101879190612ef4565b610642565b6040516101999190612f30565b60405180910390f35b3480156101ae57600080fd5b506101b7610724565b6040516101c49190612fdb565b60405180910390f35b3480156101d957600080fd5b506101f460048036038101906101ef9190613029565b6107b6565b6040516102019190613065565b60405180910390f35b34801561021657600080fd5b50610231600480360381019061022c91906130ac565b6107fc565b005b34801561023f57600080fd5b50610248610913565b60405161025591906130fb565b60405180910390f35b34801561026a57600080fd5b5061028560048036038101906102809190613116565b61091d565b005b34801561029357600080fd5b5061029c61097d565b6040516102a99190613280565b60405180910390f35b6102cc60048036038101906102c79190613029565b610c69565b005b3480156102da57600080fd5b506102f560048036038101906102f09190613116565b610f22565b005b34801561030357600080fd5b5061031e60048036038101906103199190613029565b610f42565b60405161032b9190613065565b60405180910390f35b61034e600480360381019061034991906132a2565b610fc8565b005b34801561035c57600080fd5b50610377600480360381019061037291906132e2565b6111f0565b60405161038491906130fb565b60405180910390f35b34801561039957600080fd5b506103b460048036038101906103af9190613444565b6112a7565b6040516103c191906130fb565b60405180910390f35b3480156103d657600080fd5b506103df6112e9565b6040516103ec9190612fdb565b60405180910390f35b34801561040157600080fd5b5061040a61137b565b6040516104179190613280565b60405180910390f35b34801561042c57600080fd5b50610447600480360381019061044291906134cc565b6115e3565b005b610463600480360381019061045e9190613029565b6115f9565b005b34801561047157600080fd5b5061048c600480360381019061048791906135ad565b611693565b005b34801561049a57600080fd5b506104b560048036038101906104b09190613029565b6116f5565b6040516104c29190612fdb565b60405180910390f35b3480156104d757600080fd5b506104e0611807565b6040516104ed9190613280565b60405180910390f35b34801561050257600080fd5b5061051d60048036038101906105189190613630565b611af3565b60405161052a9190612f30565b60405180910390f35b61053b612d12565b600b60006105496007611b87565b81526020019081526020016000206040518060a0016040529081600082015481526020016001820160009054906101000a900473ffffffffffffffffffffffffffffffffffffffff1673ffffffffffffffffffffffffffffffffffffffff1673ffffffffffffffffffffffffffffffffffffffff168152602001600282015481526020016003820160009054906101000a900473ffffffffffffffffffffffffffffffffffffffff1673ffffffffffffffffffffffffffffffffffffffff1673ffffffffffffffffffffffffffffffffffffffff1681526020016003820160149054906101000a900460ff161515151581525050905090565b60007f80ac58cd000000000000000000000000000000000000000000000000000000007bffffffffffffffffffffffffffffffffffffffffffffffffffffffff1916827bffffffffffffffffffffffffffffffffffffffffffffffffffffffff1916148061070d57507f5b5e139f000000000000000000000000000000000000000000000000000000007bffffffffffffffffffffffffffffffffffffffffffffffffffffffff1916827bffffffffffffffffffffffffffffffffffffffffffffffffffffffff1916145b8061071d575061071c82611b95565b5b9050919050565b6060600080546107339061369f565b80601f016020809104026020016040519081016040528092919081815260200182805461075f9061369f565b80156107ac5780601f10610781576101008083540402835291602001916107ac565b820191906000526020600020905b81548152906001019060200180831161078f57829003601f168201915b5050505050905090565b60006107c182611bff565b6004600083815260200190815260200160002060009054906101000a900473ffffffffffffffffffffffffffffffffffffffff169050919050565b600061080782610f42565b90508073ffffffffffffffffffffffffffffffffffffffff168373ffffffffffffffffffffffffffffffffffffffff1603610877576040517f08c379a000000000000000000000000000000000000000000000000000000000815260040161086e90613742565b60405180910390fd5b8073ffffffffffffffffffffffffffffffffffffffff16610896611c4a565b73ffffffffffffffffffffffffffffffffffffffff1614806108c557506108c4816108bf611c4a565b611af3565b5b610904576040517f08c379a00000000000000000000000000000000000000000000000000000000081526004016108fb906137d4565b60405180910390fd5b61090e8383611c52565b505050565b6000600954905090565b61092e610928611c4a565b82611d0b565b61096d576040517f08c379a000000000000000000000000000000000000000000000000000000000815260040161096490613866565b60405180910390fd5b610978838383611da0565b505050565b6060600061098b6007611b87565b905060008060005b83811015610a33573373ffffffffffffffffffffffffffffffffffffffff16600b60006001846109c391906138b5565b815260200190815260200160002060010160009054906101000a900473ffffffffffffffffffffffffffffffffffffffff1673ffffffffffffffffffffffffffffffffffffffff1603610a2057600183610a1d91906138b5565b92505b8080610a2b906138e9565b915050610993565b5060008267ffffffffffffffff811115610a5057610a4f613319565b5b604051908082528060200260200182016040528015610a8957816020015b610a76612d12565b815260200190600190039081610a6e5790505b50905060005b84811015610c5e573373ffffffffffffffffffffffffffffffffffffffff16600b6000600184610abf91906138b5565b815260200190815260200160002060010160009054906101000a900473ffffffffffffffffffffffffffffffffffffffff1673ffffffffffffffffffffffffffffffffffffffff1603610c4b576000600182610b1b91906138b5565b90506000600b60008381526020019081526020016000209050806040518060a0016040529081600082015481526020016001820160009054906101000a900473ffffffffffffffffffffffffffffffffffffffff1673ffffffffffffffffffffffffffffffffffffffff1673ffffffffffffffffffffffffffffffffffffffff168152602001600282015481526020016003820160009054906101000a900473ffffffffffffffffffffffffffffffffffffffff1673ffffffffffffffffffffffffffffffffffffffff1673ffffffffffffffffffffffffffffffffffffffff1681526020016003820160149054906101000a900460ff161515151581525050848681518110610c2e57610c2d613931565b5b6020026020010181905250600185610c4691906138b5565b945050505b8080610c56906138e9565b915050610a8f565b508094505050505090565b6000600b60008381526020019081526020016000206002015490506000600b600084815260200190815260200160002060030160009054906101000a900473ffffffffffffffffffffffffffffffffffffffff1690508073ffffffffffffffffffffffffffffffffffffffff163373ffffffffffffffffffffffffffffffffffffffff1603610d2d576040517f08c379a0000000000000000000000000000000000000000000000000000000008152600401610d24906139ac565b60405180910390fd5b60095482610d3b91906138b5565b341015610d7d576040517f08c379a0000000000000000000000000000000000000000000000000000000008152600401610d7490613a18565b60405180910390fd5b6001600b600085815260200190815260200160002060030160146101000a81548160ff02191690831515021790555033600b600085815260200190815260200160002060010160006101000a81548173ffffffffffffffffffffffffffffffffffffffff021916908373ffffffffffffffffffffffffffffffffffffffff16021790555033600b600085815260200190815260200160002060030160006101000a81548173ffffffffffffffffffffffffffffffffffffffff021916908373ffffffffffffffffffffffffffffffffffffffff160217905550610e606008612099565b610e6b303385611da0565b600a60009054906101000a900473ffffffffffffffffffffffffffffffffffffffff1673ffffffffffffffffffffffffffffffffffffffff166108fc6009549081150290604051600060405180830381858888f19350505050158015610ed5573d6000803e3d6000fd5b508073ffffffffffffffffffffffffffffffffffffffff166108fc839081150290604051600060405180830381858888f19350505050158015610f1c573d6000803e3d6000fd5b50505050565b610f3d83838360405180602001604052806000815250611693565b505050565b600080610f4e836120af565b9050600073ffffffffffffffffffffffffffffffffffffffff168173ffffffffffffffffffffffffffffffffffffffff1603610fbf576040517f08c379a0000000000000000000000000000000000000000000000000000000008152600401610fb690613a84565b60405180910390fd5b80915050919050565b60008111610fd557600080fd5b600b600083815260200190815260200160002060010160009054906101000a900473ffffffffffffffffffffffffffffffffffffffff1673ffffffffffffffffffffffffffffffffffffffff163373ffffffffffffffffffffffffffffffffffffffff1614611079576040517f08c379a000000000000000000000000000000000000000000000000000000000815260040161107090613b16565b60405180910390fd5b60011515600b600084815260200190815260200160002060030160149054906101000a900460ff161515146110e3576040517f08c379a00000000000000000000000000000000000000000000000000000000081526004016110da90613ba8565b60405180910390fd5b6000600b600084815260200190815260200160002060030160146101000a81548160ff02191690831515021790555030600b600084815260200190815260200160002060010160006101000a81548173ffffffffffffffffffffffffffffffffffffffff021916908373ffffffffffffffffffffffffffffffffffffffff16021790555033600b600084815260200190815260200160002060030160006101000a81548173ffffffffffffffffffffffffffffffffffffffff021916908373ffffffffffffffffffffffffffffffffffffffff16021790555080600b6000848152602001908152602001600020600201819055506111e160086120ec565b6111ec333084611da0565b5050565b60008073ffffffffffffffffffffffffffffffffffffffff168273ffffffffffffffffffffffffffffffffffffffff1603611260576040517f08c379a000000000000000000000000000000000000000000000000000000000815260040161125790613c3a565b60405180910390fd5b600360008373ffffffffffffffffffffffffffffffffffffffff1673ffffffffffffffffffffffffffffffffffffffff168152602001908152602001600020549050919050565b60006112b36007612099565b60006112bf6007611b87565b90506112cb3382612148565b6112d58185612365565b6112df81846123d2565b8091505092915050565b6060600180546112f89061369f565b80601f01602080910402602001604051908101604052809291908181526020018280546113249061369f565b80156113715780601f1061134657610100808354040283529160200191611371565b820191906000526020600020905b81548152906001019060200180831161135457829003601f168201915b5050505050905090565b606060006113896007611b87565b905060006113976008611b87565b6113a16007611b87565b6113ab9190613c5a565b90506000808267ffffffffffffffff8111156113ca576113c9613319565b5b60405190808252806020026020018201604052801561140357816020015b6113f0612d12565b8152602001906001900390816113e85790505b50905060005b848110156115d8573073ffffffffffffffffffffffffffffffffffffffff16600b600060018461143991906138b5565b815260200190815260200160002060010160009054906101000a900473ffffffffffffffffffffffffffffffffffffffff1673ffffffffffffffffffffffffffffffffffffffff16036115c557600060018261149591906138b5565b90506000600b60008381526020019081526020016000209050806040518060a0016040529081600082015481526020016001820160009054906101000a900473ffffffffffffffffffffffffffffffffffffffff1673ffffffffffffffffffffffffffffffffffffffff1673ffffffffffffffffffffffffffffffffffffffff168152602001600282015481526020016003820160009054906101000a900473ffffffffffffffffffffffffffffffffffffffff1673ffffffffffffffffffffffffffffffffffffffff1673ffffffffffffffffffffffffffffffffffffffff1681526020016003820160149054906101000a900460ff1615151515815250508486815181106115a8576115a7613931565b5b60200260200101819052506001856115c091906138b5565b945050505b80806115d0906138e9565b915050611409565b508094505050505090565b6115f56115ee611c4a565b8383612593565b5050565b600a60009054906101000a900473ffffffffffffffffffffffffffffffffffffffff1673ffffffffffffffffffffffffffffffffffffffff163373ffffffffffffffffffffffffffffffffffffffff1614611689576040517f08c379a000000000000000000000000000000000000000000000000000000000815260040161168090613cda565b60405180910390fd5b8060098190555050565b6116a461169e611c4a565b83611d0b565b6116e3576040517f08c379a00000000000000000000000000000000000000000000000000000000081526004016116da90613866565b60405180910390fd5b6116ef848484846126ff565b50505050565b606061170082611bff565b60006006600084815260200190815260200160002080546117209061369f565b80601f016020809104026020016040519081016040528092919081815260200182805461174c9061369f565b80156117995780601f1061176e57610100808354040283529160200191611799565b820191906000526020600020905b81548152906001019060200180831161177c57829003601f168201915b5050505050905060006117aa61275b565b905060008151036117bf578192505050611802565b6000825111156117f45780826040516020016117dc929190613d36565b60405160208183030381529060405292505050611802565b6117fd84612772565b925050505b919050565b606060006118156007611b87565b905060008060005b838110156118bd573373ffffffffffffffffffffffffffffffffffffffff16600b600060018461184d91906138b5565b815260200190815260200160002060030160009054906101000a900473ffffffffffffffffffffffffffffffffffffffff1673ffffffffffffffffffffffffffffffffffffffff16036118aa576001836118a791906138b5565b92505b80806118b5906138e9565b91505061181d565b5060008267ffffffffffffffff8111156118da576118d9613319565b5b60405190808252806020026020018201604052801561191357816020015b611900612d12565b8152602001906001900390816118f85790505b50905060005b84811015611ae8573373ffffffffffffffffffffffffffffffffffffffff16600b600060018461194991906138b5565b815260200190815260200160002060030160009054906101000a900473ffffffffffffffffffffffffffffffffffffffff1673ffffffffffffffffffffffffffffffffffffffff1603611ad55760006001826119a591906138b5565b90506000600b60008381526020019081526020016000209050806040518060a0016040529081600082015481526020016001820160009054906101000a900473ffffffffffffffffffffffffffffffffffffffff1673ffffffffffffffffffffffffffffffffffffffff1673ffffffffffffffffffffffffffffffffffffffff168152602001600282015481526020016003820160009054906101000a900473ffffffffffffffffffffffffffffffffffffffff1673ffffffffffffffffffffffffffffffffffffffff1673ffffffffffffffffffffffffffffffffffffffff1681526020016003820160149054906101000a900460ff161515151581525050848681518110611ab857611ab7613931565b5b6020026020010181905250600185611ad091906138b5565b945050505b8080611ae0906138e9565b915050611919565b508094505050505090565b6000600560008473ffffffffffffffffffffffffffffffffffffffff1673ffffffffffffffffffffffffffffffffffffffff16815260200190815260200160002060008373ffffffffffffffffffffffffffffffffffffffff1673ffffffffffffffffffffffffffffffffffffffff16815260200190815260200160002060009054906101000a900460ff16905092915050565b600081600001549050919050565b60007f01ffc9a7000000000000000000000000000000000000000000000000000000007bffffffffffffffffffffffffffffffffffffffffffffffffffffffff1916827bffffffffffffffffffffffffffffffffffffffffffffffffffffffff1916149050919050565b611c08816127da565b611c47576040517f08c379a0000000000000000000000000000000000000000000000000000000008152600401611c3e90613a84565b60405180910390fd5b50565b600033905090565b816004600083815260200190815260200160002060006101000a81548173ffffffffffffffffffffffffffffffffffffffff021916908373ffffffffffffffffffffffffffffffffffffffff160217905550808273ffffffffffffffffffffffffffffffffffffffff16611cc583610f42565b73ffffffffffffffffffffffffffffffffffffffff167f8c5be1e5ebec7d5bd14f71427d1e84f3dd0314c0f7b2291e5b200ac8c7c3b92560405160405180910390a45050565b600080611d1783610f42565b90508073ffffffffffffffffffffffffffffffffffffffff168473ffffffffffffffffffffffffffffffffffffffff161480611d595750611d588185611af3565b5b80611d9757508373ffffffffffffffffffffffffffffffffffffffff16611d7f846107b6565b73ffffffffffffffffffffffffffffffffffffffff16145b91505092915050565b8273ffffffffffffffffffffffffffffffffffffffff16611dc082610f42565b73ffffffffffffffffffffffffffffffffffffffff1614611e16576040517f08c379a0000000000000000000000000000000000000000000000000000000008152600401611e0d90613dcc565b60405180910390fd5b600073ffffffffffffffffffffffffffffffffffffffff168273ffffffffffffffffffffffffffffffffffffffff1603611e85576040517f08c379a0000000000000000000000000000000000000000000000000000000008152600401611e7c90613e5e565b60405180910390fd5b611e92838383600161281b565b8273ffffffffffffffffffffffffffffffffffffffff16611eb282610f42565b73ffffffffffffffffffffffffffffffffffffffff1614611f08576040517f08c379a0000000000000000000000000000000000000000000000000000000008152600401611eff90613dcc565b60405180910390fd5b6004600082815260200190815260200160002060006101000a81549073ffffffffffffffffffffffffffffffffffffffff02191690556001600360008573ffffffffffffffffffffffffffffffffffffffff1673ffffffffffffffffffffffffffffffffffffffff168152602001908152602001600020600082825403925050819055506001600360008473ffffffffffffffffffffffffffffffffffffffff1673ffffffffffffffffffffffffffffffffffffffff16815260200190815260200160002060008282540192505081905550816002600083815260200190815260200160002060006101000a81548173ffffffffffffffffffffffffffffffffffffffff021916908373ffffffffffffffffffffffffffffffffffffffff160217905550808273ffffffffffffffffffffffffffffffffffffffff168473ffffffffffffffffffffffffffffffffffffffff167fddf252ad1be2c89b69c2b068fc378daa952ba7f163c4a11628f55a4df523b3ef60405160405180910390a46120948383836001612941565b505050565b6001816000016000828254019250508190555050565b60006002600083815260200190815260200160002060009054906101000a900473ffffffffffffffffffffffffffffffffffffffff169050919050565b60008160000154905060008111612138576040517f08c379a000000000000000000000000000000000000000000000000000000000815260040161212f90613eca565b60405180910390fd5b6001810382600001819055505050565b600073ffffffffffffffffffffffffffffffffffffffff168273ffffffffffffffffffffffffffffffffffffffff16036121b7576040517f08c379a00000000000000000000000000000000000000000000000000000000081526004016121ae90613f36565b60405180910390fd5b6121c0816127da565b15612200576040517f08c379a00000000000000000000000000000000000000000000000000000000081526004016121f790613fa2565b60405180910390fd5b61220e60008383600161281b565b612217816127da565b15612257576040517f08c379a000000000000000000000000000000000000000000000000000000000815260040161224e90613fa2565b60405180910390fd5b6001600360008473ffffffffffffffffffffffffffffffffffffffff1673ffffffffffffffffffffffffffffffffffffffff16815260200190815260200160002060008282540192505081905550816002600083815260200190815260200160002060006101000a81548173ffffffffffffffffffffffffffffffffffffffff021916908373ffffffffffffffffffffffffffffffffffffffff160217905550808273ffffffffffffffffffffffffffffffffffffffff16600073ffffffffffffffffffffffffffffffffffffffff167fddf252ad1be2c89b69c2b068fc378daa952ba7f163c4a11628f55a4df523b3ef60405160405180910390a4612361600083836001612941565b5050565b61236e826127da565b6123ad576040517f08c379a00000000000000000000000000000000000000000000000000000000081526004016123a490614034565b60405180910390fd5b806006600084815260200190815260200160002090816123cd9190614200565b505050565b600954811015612417576040517f08c379a000000000000000000000000000000000000000000000000000000000815260040161240e90614344565b60405180910390fd5b6040518060a001604052808381526020013073ffffffffffffffffffffffffffffffffffffffff1681526020018281526020013373ffffffffffffffffffffffffffffffffffffffff16815260200160001515815250600b60008481526020019081526020016000206000820151816000015560208201518160010160006101000a81548173ffffffffffffffffffffffffffffffffffffffff021916908373ffffffffffffffffffffffffffffffffffffffff1602179055506040820151816002015560608201518160030160006101000a81548173ffffffffffffffffffffffffffffffffffffffff021916908373ffffffffffffffffffffffffffffffffffffffff16021790555060808201518160030160146101000a81548160ff021916908315150217905550905050612550333084611da0565b817f802c20517e0da99e615d98240de38d3548406dba2cb0607725d0ac49e65eee1d30833360006040516125879493929190614373565b60405180910390a25050565b8173ffffffffffffffffffffffffffffffffffffffff168373ffffffffffffffffffffffffffffffffffffffff1603612601576040517f08c379a00000000000000000000000000000000000000000000000000000000081526004016125f890614404565b60405180910390fd5b80600560008573ffffffffffffffffffffffffffffffffffffffff1673ffffffffffffffffffffffffffffffffffffffff16815260200190815260200160002060008473ffffffffffffffffffffffffffffffffffffffff1673ffffffffffffffffffffffffffffffffffffffff16815260200190815260200160002060006101000a81548160ff0219169083151502179055508173ffffffffffffffffffffffffffffffffffffffff168373ffffffffffffffffffffffffffffffffffffffff167f17307eab39ab6107e8899845ad3d59bd9653f200f220920489ca2b5937696c31836040516126f29190612f30565b60405180910390a3505050565b61270a848484611da0565b61271684848484612947565b612755576040517f08c379a000000000000000000000000000000000000000000000000000000000815260040161274c90614496565b60405180910390fd5b50505050565b606060405180602001604052806000815250905090565b606061277d82611bff565b600061278761275b565b905060008151116127a757604051806020016040528060008152506127d2565b806127b184612ace565b6040516020016127c2929190613d36565b6040516020818303038152906040525b915050919050565b60008073ffffffffffffffffffffffffffffffffffffffff166127fc836120af565b73ffffffffffffffffffffffffffffffffffffffff1614159050919050565b600181111561293b57600073ffffffffffffffffffffffffffffffffffffffff168473ffffffffffffffffffffffffffffffffffffffff16146128af5780600360008673ffffffffffffffffffffffffffffffffffffffff1673ffffffffffffffffffffffffffffffffffffffff16815260200190815260200160002060008282546128a79190613c5a565b925050819055505b600073ffffffffffffffffffffffffffffffffffffffff168373ffffffffffffffffffffffffffffffffffffffff161461293a5780600360008573ffffffffffffffffffffffffffffffffffffffff1673ffffffffffffffffffffffffffffffffffffffff168152602001908152602001600020600082825461293291906138b5565b925050819055505b5b50505050565b50505050565b60006129688473ffffffffffffffffffffffffffffffffffffffff16612b9c565b15612ac1578373ffffffffffffffffffffffffffffffffffffffff1663150b7a02612991611c4a565b8786866040518563ffffffff1660e01b81526004016129b3949392919061450b565b6020604051808303816000875af19250505080156129ef57506040513d601f19601f820116820180604052508101906129ec919061456c565b60015b612a71573d8060008114612a1f576040519150601f19603f3d011682016040523d82523d6000602084013e612a24565b606091505b506000815103612a69576040517f08c379a0000000000000000000000000000000000000000000000000000000008152600401612a6090614496565b60405180910390fd5b805181602001fd5b63150b7a0260e01b7bffffffffffffffffffffffffffffffffffffffffffffffffffffffff1916817bffffffffffffffffffffffffffffffffffffffffffffffffffffffff191614915050612ac6565b600190505b949350505050565b606060006001612add84612bbf565b01905060008167ffffffffffffffff811115612afc57612afb613319565b5b6040519080825280601f01601f191660200182016040528015612b2e5781602001600182028036833780820191505090505b509050600082602001820190505b600115612b91578080600190039150507f3031323334353637383961626364656600000000000000000000000000000000600a86061a8153600a8581612b8557612b84614599565b5b04945060008503612b3c575b819350505050919050565b6000808273ffffffffffffffffffffffffffffffffffffffff163b119050919050565b600080600090507a184f03e93ff9f4daa797ed6e38ed64bf6a1f0100000000000000008310612c1d577a184f03e93ff9f4daa797ed6e38ed64bf6a1f0100000000000000008381612c1357612c12614599565b5b0492506040810190505b6d04ee2d6d415b85acef81000000008310612c5a576d04ee2d6d415b85acef81000000008381612c5057612c4f614599565b5b0492506020810190505b662386f26fc100008310612c8957662386f26fc100008381612c7f57612c7e614599565b5b0492506010810190505b6305f5e1008310612cb2576305f5e1008381612ca857612ca7614599565b5b0492506008810190505b6127108310612cd7576127108381612ccd57612ccc614599565b5b0492506004810190505b60648310612cfa5760648381612cf057612cef614599565b5b0492506002810190505b600a8310612d09576001810190505b80915050919050565b6040518060a0016040528060008152602001600073ffffffffffffffffffffffffffffffffffffffff16815260200160008152602001600073ffffffffffffffffffffffffffffffffffffffff1681526020016000151581525090565b6000819050919050565b612d8281612d6f565b82525050565b600073ffffffffffffffffffffffffffffffffffffffff82169050919050565b6000612db382612d88565b9050919050565b612dc381612da8565b82525050565b6000612dd482612d88565b9050919050565b612de481612dc9565b82525050565b60008115159050919050565b612dff81612dea565b82525050565b60a082016000820151612e1b6000850182612d79565b506020820151612e2e6020850182612dba565b506040820151612e416040850182612d79565b506060820151612e546060850182612ddb565b506080820151612e676080850182612df6565b50505050565b600060a082019050612e826000830184612e05565b92915050565b6000604051905090565b600080fd5b600080fd5b60007fffffffff0000000000000000000000000000000000000000000000000000000082169050919050565b612ed181612e9c565b8114612edc57600080fd5b50565b600081359050612eee81612ec8565b92915050565b600060208284031215612f0a57612f09612e92565b5b6000612f1884828501612edf565b91505092915050565b612f2a81612dea565b82525050565b6000602082019050612f456000830184612f21565b92915050565b600081519050919050565b600082825260208201905092915050565b60005b83811015612f85578082015181840152602081019050612f6a565b60008484015250505050565b6000601f19601f8301169050919050565b6000612fad82612f4b565b612fb78185612f56565b9350612fc7818560208601612f67565b612fd081612f91565b840191505092915050565b60006020820190508181036000830152612ff58184612fa2565b905092915050565b61300681612d6f565b811461301157600080fd5b50565b60008135905061302381612ffd565b92915050565b60006020828403121561303f5761303e612e92565b5b600061304d84828501613014565b91505092915050565b61305f81612da8565b82525050565b600060208201905061307a6000830184613056565b92915050565b61308981612da8565b811461309457600080fd5b50565b6000813590506130a681613080565b92915050565b600080604083850312156130c3576130c2612e92565b5b60006130d185828601613097565b92505060206130e285828601613014565b9150509250929050565b6130f581612d6f565b82525050565b600060208201905061311060008301846130ec565b92915050565b60008060006060848603121561312f5761312e612e92565b5b600061313d86828701613097565b935050602061314e86828701613097565b925050604061315f86828701613014565b9150509250925092565b600081519050919050565b600082825260208201905092915050565b6000819050602082019050919050565b60a0820160008201516131ab6000850182612d79565b5060208201516131be6020850182612dba565b5060408201516131d16040850182612d79565b5060608201516131e46060850182612ddb565b5060808201516131f76080850182612df6565b50505050565b60006132098383613195565b60a08301905092915050565b6000602082019050919050565b600061322d82613169565b6132378185613174565b935061324283613185565b8060005b8381101561327357815161325a88826131fd565b975061326583613215565b925050600181019050613246565b5085935050505092915050565b6000602082019050818103600083015261329a8184613222565b905092915050565b600080604083850312156132b9576132b8612e92565b5b60006132c785828601613014565b92505060206132d885828601613014565b9150509250929050565b6000602082840312156132f8576132f7612e92565b5b600061330684828501613097565b91505092915050565b600080fd5b600080fd5b7f4e487b7100000000000000000000000000000000000000000000000000000000600052604160045260246000fd5b61335182612f91565b810181811067ffffffffffffffff821117156133705761336f613319565b5b80604052505050565b6000613383612e88565b905061338f8282613348565b919050565b600067ffffffffffffffff8211156133af576133ae613319565b5b6133b882612f91565b9050602081019050919050565b82818337600083830152505050565b60006133e76133e284613394565b613379565b90508281526020810184848401111561340357613402613314565b5b61340e8482856133c5565b509392505050565b600082601f83011261342b5761342a61330f565b5b813561343b8482602086016133d4565b91505092915050565b6000806040838503121561345b5761345a612e92565b5b600083013567ffffffffffffffff81111561347957613478612e97565b5b61348585828601613416565b925050602061349685828601613014565b9150509250929050565b6134a981612dea565b81146134b457600080fd5b50565b6000813590506134c6816134a0565b92915050565b600080604083850312156134e3576134e2612e92565b5b60006134f185828601613097565b9250506020613502858286016134b7565b9150509250929050565b600067ffffffffffffffff82111561352757613526613319565b5b61353082612f91565b9050602081019050919050565b600061355061354b8461350c565b613379565b90508281526020810184848401111561356c5761356b613314565b5b6135778482856133c5565b509392505050565b600082601f8301126135945761359361330f565b5b81356135a484826020860161353d565b91505092915050565b600080600080608085870312156135c7576135c6612e92565b5b60006135d587828801613097565b94505060206135e687828801613097565b93505060406135f787828801613014565b925050606085013567ffffffffffffffff81111561361857613617612e97565b5b6136248782880161357f565b91505092959194509250565b6000806040838503121561364757613646612e92565b5b600061365585828601613097565b925050602061366685828601613097565b9150509250929050565b7f4e487b7100000000000000000000000000000000000000000000000000000000600052602260045260246000fd5b600060028204905060018216806136b757607f821691505b6020821081036136ca576136c9613670565b5b50919050565b7f4552433732313a20617070726f76616c20746f2063757272656e74206f776e6560008201527f7200000000000000000000000000000000000000000000000000000000000000602082015250565b600061372c602183612f56565b9150613737826136d0565b604082019050919050565b6000602082019050818103600083015261375b8161371f565b9050919050565b7f4552433732313a20617070726f76652063616c6c6572206973206e6f7420746f60008201527f6b656e206f776e6572206f7220617070726f76656420666f7220616c6c000000602082015250565b60006137be603d83612f56565b91506137c982613762565b604082019050919050565b600060208201905081810360008301526137ed816137b1565b9050919050565b7f4552433732313a2063616c6c6572206973206e6f7420746f6b656e206f776e6560008201527f72206f7220617070726f76656400000000000000000000000000000000000000602082015250565b6000613850602d83612f56565b915061385b826137f4565b604082019050919050565b6000602082019050818103600083015261387f81613843565b9050919050565b7f4e487b7100000000000000000000000000000000000000000000000000000000600052601160045260246000fd5b60006138c082612d6f565b91506138cb83612d6f565b92508282019050808211156138e3576138e2613886565b5b92915050565b60006138f482612d6f565b91507fffffffffffffffffffffffffffffffffffffffffffffffffffffffffffffffff820361392657613925613886565b5b600182019050919050565b7f4e487b7100000000000000000000000000000000000000000000000000000000600052603260045260246000fd5b7f73656c6c65722063616e6e6f7420627579000000000000000000000000000000600082015250565b6000613996601183612f56565b91506139a182613960565b602082019050919050565b600060208201905081810360008301526139c581613989565b9050919050565b7f696e73756666696369656e742066756e64730000000000000000000000000000600082015250565b6000613a02601283612f56565b9150613a0d826139cc565b602082019050919050565b60006020820190508181036000830152613a31816139f5565b9050919050565b7f4552433732313a20696e76616c696420746f6b656e2049440000000000000000600082015250565b6000613a6e601883612f56565b9150613a7982613a38565b602082019050919050565b60006020820190508181036000830152613a9d81613a61565b9050919050565b7f796f752073686f756c6420626520746865206f776e657220746f20726573656c60008201527f6c2074686973206974656d000000000000000000000000000000000000000000602082015250565b6000613b00602b83612f56565b9150613b0b82613aa4565b604082019050919050565b60006020820190508181036000830152613b2f81613af3565b9050919050565b7f796f752063616e277420726573656c6c20616e206974656d207468617420697360008201527f20616c7265616479206f6e2073616c6500000000000000000000000000000000602082015250565b6000613b92603083612f56565b9150613b9d82613b36565b604082019050919050565b60006020820190508181036000830152613bc181613b85565b9050919050565b7f4552433732313a2061646472657373207a65726f206973206e6f74206120766160008201527f6c6964206f776e65720000000000000000000000000000000000000000000000602082015250565b6000613c24602983612f56565b9150613c2f82613bc8565b604082019050919050565b60006020820190508181036000830152613c5381613c17565b9050919050565b6000613c6582612d6f565b9150613c7083612d6f565b9250828203905081811115613c8857613c87613886565b5b92915050565b7f6f6e6c7920746865206f776e65722063616e206d6f6469667920746869730000600082015250565b6000613cc4601e83612f56565b9150613ccf82613c8e565b602082019050919050565b60006020820190508181036000830152613cf381613cb7565b9050919050565b600081905092915050565b6000613d1082612f4b565b613d1a8185613cfa565b9350613d2a818560208601612f67565b80840191505092915050565b6000613d428285613d05565b9150613d4e8284613d05565b91508190509392505050565b7f4552433732313a207472616e736665722066726f6d20696e636f72726563742060008201527f6f776e6572000000000000000000000000000000000000000000000000000000602082015250565b6000613db6602583612f56565b9150613dc182613d5a565b604082019050919050565b60006020820190508181036000830152613de581613da9565b9050919050565b7f4552433732313a207472616e7366657220746f20746865207a65726f2061646460008201527f7265737300000000000000000000000000000000000000000000000000000000602082015250565b6000613e48602483612f56565b9150613e5382613dec565b604082019050919050565b60006020820190508181036000830152613e7781613e3b565b9050919050565b7f436f756e7465723a2064656372656d656e74206f766572666c6f770000000000600082015250565b6000613eb4601b83612f56565b9150613ebf82613e7e565b602082019050919050565b60006020820190508181036000830152613ee381613ea7565b9050919050565b7f4552433732313a206d696e7420746f20746865207a65726f2061646472657373600082015250565b6000613f20602083612f56565b9150613f2b82613eea565b602082019050919050565b60006020820190508181036000830152613f4f81613f13565b9050919050565b7f4552433732313a20746f6b656e20616c7265616479206d696e74656400000000600082015250565b6000613f8c601c83612f56565b9150613f9782613f56565b602082019050919050565b60006020820190508181036000830152613fbb81613f7f565b9050919050565b7f45524337323155524953746f726167653a2055524920736574206f66206e6f6e60008201527f6578697374656e7420746f6b656e000000000000000000000000000000000000602082015250565b600061401e602e83612f56565b915061402982613fc2565b604082019050919050565b6000602082019050818103600083015261404d81614011565b9050919050565b60008190508160005260206000209050919050565b60006020601f8301049050919050565b600082821b905092915050565b6000600883026140b67fffffffffffffffffffffffffffffffffffffffffffffffffffffffffffffffff82614079565b6140c08683614079565b95508019841693508086168417925050509392505050565b6000819050919050565b60006140fd6140f86140f384612d6f565b6140d8565b612d6f565b9050919050565b6000819050919050565b614117836140e2565b61412b61412382614104565b848454614086565b825550505050565b600090565b614140614133565b61414b81848461410e565b505050565b5b8181101561416f57614164600082614138565b600181019050614151565b5050565b601f8211156141b45761418581614054565b61418e84614069565b8101602085101561419d578190505b6141b16141a985614069565b830182614150565b50505b505050565b600082821c905092915050565b60006141d7600019846008026141b9565b1980831691505092915050565b60006141f083836141c6565b9150826002028217905092915050565b61420982612f4b565b67ffffffffffffffff81111561422257614221613319565b5b61422c825461369f565b614237828285614173565b600060209050601f83116001811461426a5760008415614258578287015190505b61426285826141e4565b8655506142ca565b601f19841661427886614054565b60005b828110156142a05784890151825560018201915060208501945060208101905061427b565b868310156142bd57848901516142b9601f8916826141c6565b8355505b6001600288020188555050505b505050505050565b7f70726963652073686f75642062652067726561746572207468616e206c69737460008201527f696e672070726963650000000000000000000000000000000000000000000000602082015250565b600061432e602983612f56565b9150614339826142d2565b604082019050919050565b6000602082019050818103600083015261435d81614321565b9050919050565b61436d81612dc9565b82525050565b60006080820190506143886000830187613056565b61439560208301866130ec565b6143a26040830185614364565b6143af6060830184612f21565b95945050505050565b7f4552433732313a20617070726f766520746f2063616c6c657200000000000000600082015250565b60006143ee601983612f56565b91506143f9826143b8565b602082019050919050565b6000602082019050818103600083015261441d816143e1565b9050919050565b7f4552433732313a207472616e7366657220746f206e6f6e20455243373231526560008201527f63656976657220696d706c656d656e7465720000000000000000000000000000602082015250565b6000614480603283612f56565b915061448b82614424565b604082019050919050565b600060208201905081810360008301526144af81614473565b9050919050565b600081519050919050565b600082825260208201905092915050565b60006144dd826144b6565b6144e781856144c1565b93506144f7818560208601612f67565b61450081612f91565b840191505092915050565b60006080820190506145206000830187613056565b61452d6020830186613056565b61453a60408301856130ec565b818103606083015261454c81846144d2565b905095945050505050565b60008151905061456681612ec8565b92915050565b60006020828403121561458257614581612e92565b5b600061459084828501614557565b91505092915050565b7f4e487b7100000000000000000000000000000000000000000000000000000000600052601260045260246000fdfea264697066735822122027739e1ef445f40e37f6ebef1765fba72b06e46d4689a72f8b1e50336abb0bee64736f6c63430008110033",
    "linkReferences": {},
    "deployedLinkReferences": {}
}